:020000040800F2
:1000000000000320B10500080106000801060008F1
:1000100001060008010600080106000800000000B3
:1000200000000000000000000000000001060008C1
:100030000106000800000000010600080106000893
:100040000106000801060008010600080106000874
:100050000106000801060008010600080106000864
:100060000106000801060008010600080106000854
:100070000106000801060008010600080106000844
:100080000106000801060008010600080106000834
:100090000106000801060008010600080106000824
:1000A0000106000801060008010600080106000814
:1000B0000106000801060008010600080106000804
:1000C00001060008010600080106000801060008F4
:1000D00001060008010600080106000801060008E4
:1000E00001060008010600080106000801060008D4
:1000F00001060008010600080106000801060008C4
:1001000001060008010600080106000801060008B3
:1001100001060008010600080106000801060008A3
:100120000106000801060008010600080106000893
:100130000106000801060008010600080106000883
:100140000106000801060008010600080106000873
:100150000106000801060008010600080106000863
:100160000106000801060008010600080106000853
:100170000106000801060008010600080000000052
:100180000106000801060008010600080106000833
:100190000106000801060008010600080106000823
:0C01A00001060008010600080106000826
:1001AC0010B5054C237833B9044B13B10448AFF3A5
:1001BC0000800123237010BD00000020000000000F
:1001CC004C06000808B5034B1BB103490348AFF3B9
:1001DC00008008BD00000000040000204C06000850
:1001EC00034AD2F8883043F47003C2F88830704761
:1001FC0000ED00E008B5874AD2F8303843F006032A
:10020C00C2F8303800F01AF900F02CF900F03EF981
:10021C0000F0BCF900F062F900F084F900F0A6F9E6
:10022C005DE07D4B1B681BB97C4B00221A7062E0B1
:10023C00013B794A13605EE0002B6BD1784B0022B6
:10024C001A7067E000F036F900F06CF900F08EF9E6
:10025C00744B01221A700023734A1370734A137083
:10026C00704B1B78012B00F0A38071498A6942F016
:10027C0080628A616BB903F1804303F502331B6919
:10028C0013F4806F00F09A806A4A936943F001037B
:10029C009361654B1B78012B00F0968064498A6949
:1002AC0042F000628A616BB903F1804303F50233BB
:1002BC001B6913F4006F00F08D805E4A936943F064
:1002CC0080039361594B1B78012B00F089805849AE
:1002DC008A6942F080528A61002B00F08780544B6F
:1002EC001B6913F4005F9CD04B4B4FF4FA621A60FD
:1002FC004A4B01221A70494B1B78494A1278002A42
:10030C0008BF012B98D1464B01221A704A4A136838
:10031C0001331360484B1B68013B042BA0D801A28E
:10032C0052F823F05102000845030008630300084B
:10033C00810300089D03000800F0E0F800F0CEF8FF
:10034C0000F014F90023374A1370374A0121117059
:10035C00364A137084E700F0E5F800F0BFF800F0BF
:10036C00F1F800232F4A13702F4A13702F4B0122E0
:10037C001A7075E700F09EF800F0C0F800F0E2F893
:10038C000123284A1370284A1370284A137067E710
:10039C0000F0A4F800F0C6F800F0E8F80023214AB9
:1003AC001370214A1370214A1370234A136057E7C4
:1003BC001F498A6942F480628A615BE71D4A93692E
:1003CC0043F48033936164E719498A6942F400620B
:1003DC008A6168E7174A936943F40003936171E7F4
:1003EC0013498A6942F480528A6175E703F18043AC
:1003FC0003F502331B6913F4805F05D00D4A936932
:10040C0043F4804393616AE70A4A936943F080435B
:10041C00936164E7003002401C00002020000020A3
:10042C00210000202A0000202900002028000020A4
:10043C00000802400004024024000020084B1A6807
:10044C0042F001021A605A6822F001025A609A685E
:10045C0042F001029A60DA6822F00102DA60704719
:10046C0000040240084B1A6842F480421A605A6831
:10047C0022F080025A609A6842F480429A60DA68EC
:10048C0022F48042DA60704700040240084B1A687C
:10049C0042F080521A605A6822F480425A609A687C
:1004AC0042F080529A60DA6822F08052DA6070472B
:1004BC0000040240084B1A6842F480121A605A6811
:1004CC0022F480625A609A6842F480129A60DA6868
:1004DC0022F48012DA60704700080240064B1A685A
:1004EC0022F480121A609A6822F480129A60DA68F8
:1004FC0022F48012DA60704700080240084B1A6838
:10050C0042F480021A605A6822F400625A609A68B7
:10051C0042F480029A60DA6822F48002DA60704752
:10052C0000080240064B1A6822F480021A609A688E
:10053C0022F480029A60DA6822F48002DA60704752
:10054C0000080240084B1A6842F080721A605A6820
:10055C0022F480525A609A6842F080729A60DA688B
:10056C0022F08072DA60704700080240064B1A686D
:10057C0022F080721A609A6822F080729A60DA68AF
:10058C0022F08072DA60704700080240044B1A684F
:10059C0022F040621A609A6822F040629A607047BA
:1005AC0000080240DFF834D00D480E490E4A0023F3
:1005BC0002E0D458C4500433C4188C42F9D30B4A0B
:1005CC000B4C002301E013600432A242FBD3FFF773
:1005DC0007FE00F011F8FFF70DFE70470000032036
:1005EC0000000020000000206C0600080000002025
:1005FC002C000020FEE7000070B50D4D0D4C641B67
:10060C00A4100026A64209D10B4D0C4C00F018F892
:10061C00641BA4100026A64205D170BD55F8043BFE
:10062C0098470136EEE755F8043B98470136F2E758
:10063C0064060008640600086406000868060008E2
:10064C00F8B500BFF8BC08BC9E467047F8B500BFB3
:08065C00F8BC08BC9E46704783
:04066400D1010008B8
:04066800AD010008D8
:04000005080005B139
:00000001FF
