:020000040800F2
:1000000000000320D102000821030008210300089A
:10001000210300082103000821030008000000005C
:1000200000000000000000000000000021030008A4
:10003000210300080000000021030008210300083C
:100040002103000821030008210300082103000800
:1000500021030008210300082103000821030008F0
:1000600021030008210300082103000821030008E0
:1000700021030008210300082103000821030008D0
:1000800021030008210300082103000821030008C0
:1000900021030008210300082103000821030008B0
:1000A00021030008210300082103000821030008A0
:1000B0002103000821030008210300082103000890
:1000C0002103000821030008210300082103000880
:1000D0002103000821030008210300082103000870
:1000E0002103000821030008210300082103000860
:1000F0002103000821030008210300082103000850
:10010000210300082103000821030008210300083F
:10011000210300082103000821030008210300082F
:10012000210300082103000821030008210300081F
:10013000210300082103000821030008210300080F
:1001400021030008210300082103000821030008FF
:1001500021030008210300082103000821030008EF
:1001600021030008210300082103000821030008DF
:1001700021030008210300082103000800000000FB
:1001800021030008210300082103000821030008BF
:1001900021030008210300082103000821030008AF
:0C01A000210300082103000821030008CF
:1001AC0010B5054C237833B9044B13B10448AFF3A5
:1001BC0000800123237010BD00000020000000000F
:1001CC006C03000808B5034B1BB103490348AFF39C
:1001DC00008008BD00000000040000206C03000833
:1001EC00034AD2F8883043F47003C2F88830704761
:1001FC0000ED00E00B4A136B43F0060313630A4B4C
:10020C001A6842F480421A605A6822F080025A60DE
:10021C009A6842F480429A60DA6822F48042DA608A
:10022C00704700BF0038024000040240024A1368C5
:10023C0043F080731360704700040240064BDA6889
:10024C0022F08072DA601A6822F080721A609A6862
:10025C0022F080729A6070470004024008B5FFF7E4
:10026C00C9FF154B00221A700DE0FFF7E7FF124B88
:10027C0001221A7011E002F1804202F501329369F9
:10028C0043F4805393610D4B1B6913F4005FECD165
:10029C00FFF7CCFF084B00221A70074B00221A7094
:1002AC00074B1B6913F4805FE5D0054A936943F053
:1002BC0080539361E7E700BF1C0000200008024058
:1002CC0000040240DFF834D00D480E490E4A0023DA
:1002DC0002E0D458C4500433C4188C42F9D30B4AEE
:1002EC000B4C002301E013600432A242FBD3FFF756
:1002FC0077FF00F011F8FFF7B1FF70470000032003
:10030C0000000020000000208C03000800000020EA
:10031C0020000020FEE7000070B50D4D0D4C641B55
:10032C00A4100026A64209D10B4D0C4C00F018F875
:10033C00641BA4100026A64205D170BD55F8043BE1
:10034C0098470136EEE755F8043B98470136F2E73B
:10035C008403000884030008840300088803000851
:10036C00F8B500BFF8BC08BC9E467047F8B500BF96
:08037C00F8BC08BC9E46704766
:04038400D10100089B
:04038800AD010008BB
:04000005080002D11C
:00000001FF
